:020000040800F2
:1000000000040020ED000008F5000008F7000008DB
:10001000F9000008FB000008FD00000800000000D7
:10002000000000000000000000000000FF000008C9
:10003000010100080000000003010008050100089C
:100040000701000807010008070100080701000870
:100050000701000807010008070100080701000860
:100060000701000807010008070100080701000850
:100070000701000807010008070100080701000840
:100080000701000807010008070100080701000830
:100090000701000807010008070100080701000820
:1000A0000701000807010008070100080701000810
:1000B0000701000807010008070100080701000800
:1000C00007010008070100080701000807010008F0
:1000D00007010008070100080701000807010008E0
:1000E00007010008070100080701000806488047CB
:1000F00006480047FEE7FEE7FEE7FEE7FEE7FEE70D
:10010000FEE7FEE7FEE7FEE73D020008AF0200085B
:1001100080B500F001F880BD84B00020039002900B
:1001200041F20001C4F20201086840F48030086026
:10013000FFE741F20000C4F20200006800F4003062
:100140000290039801300390FFE70299002001908C
:1001500039B9FFE70398B0F5A06018BF01200190FE
:10016000FFE70198C0070028E3D1FFE741F2000054
:10017000C4F2020000688003002803D5FFE70120D5
:10018000029002E000200290FFE70298012851D17E
:10019000FFE742F20001C4F20201086840F01000DB
:1001A0000860086820F007000860086840F0020056
:1001B000086041F20401C4F202010091086808607D
:1001C00008680860086840F480600860086820F4E7
:1001D0007C100860086840F4E810086041F20001F3
:1001E000C4F20201086840F080700860FFE741F245
:1001F0000000C4F2020000688001002801D4FFE77B
:10020000F5E741F20401C4F20201086820F003009E
:100210000860086840F002000860FFE741F204004F
:10022000C4F20200006800F00C00082801D0FFE7CB
:10023000F4E700E0FFE704B07047000080B541F24A
:100240000002C4F20202106840F00100106041F2A6
:100250000401C4F2020108680023CFF6FF0318402E
:10026000086010684FF6FF73CFF6F6631840106011
:10027000106820F480201060086820F4FE000860F8
:1002800041F20801C4F202014FF41F000860FFF7B9
:100290003FFF4EF60851CEF200014FF000600860BB
:1002A00080BD00003F065B4F666D7D077F6F5D4937
:1002B000086840F00C0008605B494FF0333008607C
:1002C0005A494FF03300086059494FF088000860E0
:1002D0004FF0140A4FF00F0956494FF060020A60C0
:1002E00000F04DF8B9F1010905DDBAF1010A02DDAE
:1002F00000F045F8F6E74FF005094FF0050A4D49C3
:100300004FF050020A6000F03AF8B9F1010905DD3A
:10031000BAF1010A02DD00F032F8F6E74FF00F0AF9
:100320004FF0140943494FF484720A6000F027F833
:10033000B9F1010905DDBAF1010A02DD00F01FF88B
:10034000F6E74FF005094FF0050A3A494FF08802E9
:100350000A6000F014F8B9F10109B9DDBAF1010A37
:10036000B6DD00F00CF8F6E732494FF424720A606B
:10037000314BD3F80080B8F1010FA9D0F4E74FF06A
:100380001F014FF00A08B9FBF8F202FB08F3B9EBC2
:1003900003032A48825CC35C4FEA032342EA030258
:1003A000BAFBF8F404FB08F3BAEB0305045D455D02
:1003B0004FEA04444FEA056544EA050442EA0402B0
:1003C00022FA01F303F00103002B04D01C4B4FF081
:1003D00002041C6003E01A4B4FF400341C60184BFD
:1003E0004FF001041C604FF480341C60124BD3F8B2
:1003F0000080B8F1020FB7D0491EE1DA104B4FF080
:1004000004041C604FF480241C6000B500F003F865
:100410005DF804EB7047DFF82CB0BBF1010BFCD1A9
:100420007047000018100240000801400408014015
:10043000000C01400C080140080C0140A402000817
:0804400010080140804F12007A
:04000005080000ED02
:00000001FF
