:020000040800F2
:1000000000060020ED000008F5000008F7000008D9
:10001000F9000008FB000008FD00000800000000D7
:10002000000000000000000000000000FF000008C9
:10003000010100080000000003010008050100089C
:100040000701000807010008070100080701000870
:100050000701000807010008070100080701000860
:100060000701000807010008070100080701000850
:100070000701000807010008070100080701000840
:100080000701000807010008070100080701000830
:100090000701000807010008070100080701000820
:1000A0000701000807010008070100080701000810
:1000B0000701000807010008070100080701000800
:1000C00007010008070100080701000807010008F0
:1000D00007010008070100080701000807010008E0
:1000E00007010008070100080701000809488047C8
:1000F00009480047FEE7FEE7FEE7FEE7FEE7FEE70A
:10010000FEE7FEE7FEE7FEE704480549054A064B21
:100110007047000061020008C902000800000020CA
:1001200000060020000200200002002070477047F7
:100130007047000080B500F001F880BD84B0002059
:100140000390029041F20001C4F20201086840F4F9
:1001500080300860FFE741F20000C4F2020000684E
:1001600000F400300290039801300390FFE70299F9
:100170000020019039B9FFE70398B0F5A06018BFDF
:1001800001200190FFE70198C0070028E3D1FFE7B5
:1001900041F20000C4F2020000688003002803D589
:1001A000FFE70120029002E000200290FFE70298A2
:1001B000012851D1FFE742F20001C4F202010868B0
:1001C00040F010000860086820F007000860086828
:1001D00040F00200086041F20401C4F20201009103
:1001E0000868086008680860086840F48060086073
:1001F000086820F47C100860086840F4E810086083
:1002000041F20001C4F20201086840F08070086009
:10021000FFE741F20000C4F20200006880010028FC
:1002200001D4FFE7F5E741F20401C4F202010868D6
:1002300020F003000860086840F002000860FFE753
:1002400041F20400C4F20200006800F00C0008282B
:1002500001D0FFE7F4E700E0FFE704B070470000DB
:1002600080B541F20002C4F20202106840F00100C1
:10027000106041F20401C4F2020108680023CFF6C5
:10028000FF031840086010684FF6FF73CFF6F6635F
:1002900018401060106820F480201060086820F476
:1002A000FE00086041F20801C4F202014FF41F0091
:1002B0000860FFF73FFF4EF60851CEF200014FF005
:1002C0000060086080BD00003C49086840F0FC0008
:1002D00008603B494FF0333008603A494FF008005E
:1002E000086039494FF033000860384D2B68002B07
:1002F00001D1002B04D000F011F805F10405F5E759
:10030000334C2068B0F1FF3F03D1B0F1FF3F54D030
:10031000F7E700F013F800F02FF8F2E700B52D49E9
:1003200003F500730B6000F043F8A3F5007329494F
:100330000B6000F03DF85DF804EB704700B525490F
:1003400000F54070086000F033F8A0F50070214916
:10035000086000F02DF85DF804EB70471B4D2B682A
:10036000002B01D1002B1AD0FFF7D8FF05F10405AF
:10037000F5E7CBF8004004E00CF1010CBCF1250FCF
:10038000F7D004F10404BCF1260FBAD312490A686D
:1003900000F00EF8012AB3D1BAF1000FDED0DBF87D
:1003A000009000F005F80AF1040A09EB0A04A8E736
:1003B00044F620677F1EFDD17047FEE7181002400B
:1003C000000C014000080140040C0140DC0300085F
:1003D000E80300080C0C0140080801405800000028
:1003E0000E00000001000000000000004B000000B3
:1003F00049000000450000004E0000000800000019
:1004000054000000520000005500000043000000AE
:10041000080000004D0000004100000059000000ED
:100420000800000054000000490000004E000000D9
:10043000480000000800000008000000080000005C
:10044000080000000800000008000000080000008C
:100450005400000068000000610000007900000006
:10046000080000004B000000680000006F00000062
:100470006100000008000000080000000800000003
:1004800008000000430000004F0000004F00000083
:100490004100000033000000330000003500000080
:1004A0003300000036000000340000005F00000050
:1004B0003000000033000000430000004C0000004A
:1004C00043000000080000000800000008000000D1
:1004D00008000000080000000800000053000000B1
:1004E000610000006E0000006700000008000000CE
:1004F00074000000680000007500000008000000A3
:0405000033000000C4
:04000005080000ED02
:00000001FF
